{
  "_format": "hh-sol-artifact-1",
  "contractName": "Lottery",
  "sourceName": "contracts/Lottery.sol",
  "abi": [
    {
      "inputs": [
        {
          "internalType": "address",
          "name": "vrfCoordinatorV2",
          "type": "address"
        },
        {
          "internalType": "uint256",
          "name": "entranceFee",
          "type": "uint256"
        },
        {
          "internalType": "bytes32",
          "name": "gasLane",
          "type": "bytes32"
        },
        {
          "internalType": "uint64",
          "name": "subscriptionId",
          "type": "uint64"
        },
        {
          "internalType": "uint32",
          "name": "callBackGasLimit",
          "type": "uint32"
        },
        {
          "internalType": "uint256",
          "name": "interval",
          "type": "uint256"
        }
      ],
      "stateMutability": "nonpayable",
      "type": "constructor"
    },
    {
      "inputs": [],
      "name": "Lottery__NotEnoughETHEntered",
      "type": "error"
    },
    {
      "inputs": [],
      "name": "Lottery__NotOpen",
      "type": "error"
    },
    {
      "inputs": [],
      "name": "Lottery__TransferFailed",
      "type": "error"
    },
    {
      "inputs": [
        {
          "internalType": "uint256",
          "name": "currentBalance",
          "type": "uint256"
        },
        {
          "internalType": "uint256",
          "name": "numPlayers",
          "type": "uint256"
        },
        {
          "internalType": "uint256",
          "name": "raffleState",
          "type": "uint256"
        }
      ],
      "name": "Lottery__UpKeepNotNeeded",
      "type": "error"
    },
    {
      "inputs": [
        {
          "internalType": "address",
          "name": "have",
          "type": "address"
        },
        {
          "internalType": "address",
          "name": "want",
          "type": "address"
        }
      ],
      "name": "OnlyCoordinatorCanFulfill",
      "type": "error"
    },
    {
      "anonymous": false,
      "inputs": [
        {
          "indexed": true,
          "internalType": "address",
          "name": "player",
          "type": "address"
        }
      ],
      "name": "RaffleEnter",
      "type": "event"
    },
    {
      "anonymous": false,
      "inputs": [
        {
          "indexed": true,
          "internalType": "uint256",
          "name": "requestId",
          "type": "uint256"
        }
      ],
      "name": "RequestedRaffleWinner",
      "type": "event"
    },
    {
      "anonymous": false,
      "inputs": [
        {
          "indexed": true,
          "internalType": "address",
          "name": "winner",
          "type": "address"
        }
      ],
      "name": "WinnerPicked",
      "type": "event"
    },
    {
      "inputs": [
        {
          "internalType": "bytes",
          "name": "",
          "type": "bytes"
        }
      ],
      "name": "checkUpkeep",
      "outputs": [
        {
          "internalType": "bool",
          "name": "upkeepNeeded",
          "type": "bool"
        },
        {
          "internalType": "bytes",
          "name": "",
          "type": "bytes"
        }
      ],
      "stateMutability": "nonpayable",
      "type": "function"
    },
    {
      "inputs": [],
      "name": "enterRaffle",
      "outputs": [],
      "stateMutability": "payable",
      "type": "function"
    },
    {
      "inputs": [],
      "name": "getEntranceFee",
      "outputs": [
        {
          "internalType": "uint256",
          "name": "",
          "type": "uint256"
        }
      ],
      "stateMutability": "view",
      "type": "function"
    },
    {
      "inputs": [],
      "name": "getLatestTimeStamp",
      "outputs": [
        {
          "internalType": "uint256",
          "name": "",
          "type": "uint256"
        }
      ],
      "stateMutability": "view",
      "type": "function"
    },
    {
      "inputs": [],
      "name": "getLotteryState",
      "outputs": [
        {
          "internalType": "enum Lottery.RaffleState",
          "name": "",
          "type": "uint8"
        }
      ],
      "stateMutability": "view",
      "type": "function"
    },
    {
      "inputs": [],
      "name": "getNumWords",
      "outputs": [
        {
          "internalType": "uint256",
          "name": "",
          "type": "uint256"
        }
      ],
      "stateMutability": "pure",
      "type": "function"
    },
    {
      "inputs": [],
      "name": "getNumberOfPlayers",
      "outputs": [
        {
          "internalType": "uint256",
          "name": "",
          "type": "uint256"
        }
      ],
      "stateMutability": "view",
      "type": "function"
    },
    {
      "inputs": [
        {
          "internalType": "uint256",
          "name": "index",
          "type": "uint256"
        }
      ],
      "name": "getPlayer",
      "outputs": [
        {
          "internalType": "address",
          "name": "",
          "type": "address"
        }
      ],
      "stateMutability": "view",
      "type": "function"
    },
    {
      "inputs": [],
      "name": "getRecentWinner",
      "outputs": [
        {
          "internalType": "address",
          "name": "",
          "type": "address"
        }
      ],
      "stateMutability": "view",
      "type": "function"
    },
    {
      "inputs": [],
      "name": "getRequestConfirmations",
      "outputs": [
        {
          "internalType": "uint256",
          "name": "",
          "type": "uint256"
        }
      ],
      "stateMutability": "pure",
      "type": "function"
    },
    {
      "inputs": [
        {
          "internalType": "bytes",
          "name": "",
          "type": "bytes"
        }
      ],
      "name": "performUpkeep",
      "outputs": [],
      "stateMutability": "nonpayable",
      "type": "function"
    },
    {
      "inputs": [
        {
          "internalType": "uint256",
          "name": "requestId",
          "type": "uint256"
        },
        {
          "internalType": "uint256[]",
          "name": "randomWords",
          "type": "uint256[]"
        }
      ],
      "name": "rawFulfillRandomWords",
      "outputs": [],
      "stateMutability": "nonpayable",
      "type": "function"
    }
  ],
  "bytecode": "0x6101606040523480156200001257600080fd5b506040516200178e3803806200178e833981810160405281019062000038919062000294565b858073ffffffffffffffffffffffffffffffffffffffff1660808173ffffffffffffffffffffffffffffffffffffffff1681525050508460a081815250508573ffffffffffffffffffffffffffffffffffffffff1660c08173ffffffffffffffffffffffffffffffffffffffff16815250508360e081815250508267ffffffffffffffff166101008167ffffffffffffffff16815250508163ffffffff166101208163ffffffff16815250506000600160146101000a81548160ff021916908360018111156200010d576200010c62000330565b5b0217905550426002819055508061014081815250505050505050506200035f565b600080fd5b600073ffffffffffffffffffffffffffffffffffffffff82169050919050565b6000620001608262000133565b9050919050565b620001728162000153565b81146200017e57600080fd5b50565b600081519050620001928162000167565b92915050565b6000819050919050565b620001ad8162000198565b8114620001b957600080fd5b50565b600081519050620001cd81620001a2565b92915050565b6000819050919050565b620001e881620001d3565b8114620001f457600080fd5b50565b6000815190506200020881620001dd565b92915050565b600067ffffffffffffffff82169050919050565b6200022d816200020e565b81146200023957600080fd5b50565b6000815190506200024d8162000222565b92915050565b600063ffffffff82169050919050565b6200026e8162000253565b81146200027a57600080fd5b50565b6000815190506200028e8162000263565b92915050565b60008060008060008060c08789031215620002b457620002b36200012e565b5b6000620002c489828a0162000181565b9650506020620002d789828a01620001bc565b9550506040620002ea89828a01620001f7565b9450506060620002fd89828a016200023c565b93505060806200031089828a016200027d565b92505060a06200032389828a01620001bc565b9150509295509295509295565b7f4e487b7100000000000000000000000000000000000000000000000000000000600052602160045260246000fd5b60805160a05160c05160e0516101005161012051610140516113c6620003c860003960006107a1015260006106480152600061062501526000610604015260006105c80152600081816102b4015261039a0152600081816102da015261032e01526113c66000f3fe6080604052600436106100a75760003560e01c806353a2c19a1161006457806353a2c19a146101895780635f1b0fd8146101b45780636b68c03c146101df5780636e04ff0d1461020a578063e55ae4e814610248578063fd6673f514610285576100a7565b806309bc33a7146100ac5780631fe543e3146100d75780632cfcc53914610100578063320229eb1461010a5780634585e33b14610135578063473f1ddc1461015e575b600080fd5b3480156100b857600080fd5b506100c16102b0565b6040516100ce9190610b50565b60405180910390f35b3480156100e357600080fd5b506100fe60048036038101906100f99190610d04565b6102d8565b005b610108610398565b005b34801561011657600080fd5b5061011f610507565b60405161012c9190610b50565b60405180910390f35b34801561014157600080fd5b5061015c60048036038101906101579190610dbb565b610511565b005b34801561016a57600080fd5b50610173610701565b6040516101809190610e49565b60405180910390f35b34801561019557600080fd5b5061019e61072b565b6040516101ab9190610b50565b60405180910390f35b3480156101c057600080fd5b506101c961073a565b6040516101d69190610b50565b60405180910390f35b3480156101eb57600080fd5b506101f4610747565b6040516102019190610edb565b60405180910390f35b34801561021657600080fd5b50610231600480360381019061022c9190610fab565b61075e565b60405161023f92919061108e565b60405180910390f35b34801561025457600080fd5b5061026f600480360381019061026a91906110be565b61080c565b60405161027c9190610e49565b60405180910390f35b34801561029157600080fd5b5061029a610853565b6040516102a79190610b50565b60405180910390f35b60007f0000000000000000000000000000000000000000000000000000000000000000905090565b7f000000000000000000000000000000000000000000000000000000000000000073ffffffffffffffffffffffffffffffffffffffff163373ffffffffffffffffffffffffffffffffffffffff161461038a57337f00000000000000000000000000000000000000000000000000000000000000006040517f1cf993f40000000000000000000000000000000000000000000000000000000081526004016103819291906110eb565b60405180910390fd5b610394828261085f565b5050565b7f00000000000000000000000000000000000000000000000000000000000000003410156103f2576040517fec269fd100000000000000000000000000000000000000000000000000000000815260040160405180910390fd5b6000600181111561040657610405610e64565b5b600160149054906101000a900460ff16600181111561042857610427610e64565b5b1461045f576040517fe76be6fc00000000000000000000000000000000000000000000000000000000815260040160405180910390fd5b6000339080600181540180825580915050600190039060005260206000200160009091909190916101000a81548173ffffffffffffffffffffffffffffffffffffffff021916908373ffffffffffffffffffffffffffffffffffffffff1602179055503373ffffffffffffffffffffffffffffffffffffffff167f0805e1d667bddb8a95f0f09880cf94f403fb596ce79928d9f29b74203ba284d460405160405180910390a2565b6000600254905090565b600061052b6040518060200160405280600081525061075e565b5090508061059a5747600080549050600160149054906101000a900460ff16600181111561055c5761055b610e64565b5b6040517fa9e3cfef00000000000000000000000000000000000000000000000000000000815260040161059193929190611114565b60405180910390fd5b60018060146101000a81548160ff021916908360018111156105bf576105be610e64565b5b021790555060007f000000000000000000000000000000000000000000000000000000000000000073ffffffffffffffffffffffffffffffffffffffff16635d3b1d307f00000000000000000000000000000000000000000000000000000000000000007f000000000000000000000000000000000000000000000000000000000000000060037f000000000000000000000000000000000000000000000000000000000000000060016040518663ffffffff1660e01b81526004016106899594939291906111c3565b6020604051808303816000875af11580156106a8573d6000803e3d6000fd5b505050506040513d601f19601f820116820180604052508101906106cc919061122b565b9050807fcd6e45c8998311cab7e9d4385596cac867e20a0587194b954fa3a731c93ce78b60405160405180910390a250505050565b6000600160009054906101000a900473ffffffffffffffffffffffffffffffffffffffff16905090565b6000600163ffffffff16905090565b6000600361ffff16905090565b6000600160149054906101000a900460ff16905090565b600060606000600160149054906101000a900460ff16600181111561078657610785610e64565b5b6000600181111561079a57610799610e64565b5b14905060007f0000000000000000000000000000000000000000000000000000000000000000600254426107ce9190611287565b11905060008060008054905011905060008047141590508380156107ef5750825b80156107f85750815b80156108015750805b955050505050915091565b6000808281548110610821576108206112bb565b5b9060005260206000200160009054906101000a900473ffffffffffffffffffffffffffffffffffffffff169050919050565b60008080549050905090565b600080805490508260008151811061087a576108796112bb565b5b602002602001015161088c9190611319565b905060008082815481106108a3576108a26112bb565b5b9060005260206000200160009054906101000a900473ffffffffffffffffffffffffffffffffffffffff16905080600160006101000a81548173ffffffffffffffffffffffffffffffffffffffff021916908373ffffffffffffffffffffffffffffffffffffffff1602179055506000600160146101000a81548160ff0219169083600181111561093757610936610e64565b5b0217905550600067ffffffffffffffff81111561095757610956610bc1565b5b6040519080825280602002602001820160405280156109855781602001602082028036833780820191505090505b506000908051906020019061099b929190610a90565b504260028190555060008173ffffffffffffffffffffffffffffffffffffffff16476040516109c99061137b565b60006040518083038185875af1925050503d8060008114610a06576040519150601f19603f3d011682016040523d82523d6000602084013e610a0b565b606091505b5050905080610a46576040517f1c94012000000000000000000000000000000000000000000000000000000000815260040160405180910390fd5b8173ffffffffffffffffffffffffffffffffffffffff167f5b690ec4a06fe979403046eaeea5b3ce38524683c3001f662c8b5a829632f7df60405160405180910390a25050505050565b828054828255906000526020600020908101928215610b09579160200282015b82811115610b085782518260006101000a81548173ffffffffffffffffffffffffffffffffffffffff021916908373ffffffffffffffffffffffffffffffffffffffff16021790555091602001919060010190610ab0565b5b509050610b169190610b1a565b5090565b5b80821115610b33576000816000905550600101610b1b565b5090565b6000819050919050565b610b4a81610b37565b82525050565b6000602082019050610b656000830184610b41565b92915050565b6000604051905090565b600080fd5b600080fd5b610b8881610b37565b8114610b9357600080fd5b50565b600081359050610ba581610b7f565b92915050565b600080fd5b6000601f19601f8301169050919050565b7f4e487b7100000000000000000000000000000000000000000000000000000000600052604160045260246000fd5b610bf982610bb0565b810181811067ffffffffffffffff82111715610c1857610c17610bc1565b5b80604052505050565b6000610c2b610b6b565b9050610c378282610bf0565b919050565b600067ffffffffffffffff821115610c5757610c56610bc1565b5b602082029050602081019050919050565b600080fd5b6000610c80610c7b84610c3c565b610c21565b90508083825260208201905060208402830185811115610ca357610ca2610c68565b5b835b81811015610ccc5780610cb88882610b96565b845260208401935050602081019050610ca5565b5050509392505050565b600082601f830112610ceb57610cea610bab565b5b8135610cfb848260208601610c6d565b91505092915050565b60008060408385031215610d1b57610d1a610b75565b5b6000610d2985828601610b96565b925050602083013567ffffffffffffffff811115610d4a57610d49610b7a565b5b610d5685828601610cd6565b9150509250929050565b600080fd5b60008083601f840112610d7b57610d7a610bab565b5b8235905067ffffffffffffffff811115610d9857610d97610d60565b5b602083019150836001820283011115610db457610db3610c68565b5b9250929050565b60008060208385031215610dd257610dd1610b75565b5b600083013567ffffffffffffffff811115610df057610def610b7a565b5b610dfc85828601610d65565b92509250509250929050565b600073ffffffffffffffffffffffffffffffffffffffff82169050919050565b6000610e3382610e08565b9050919050565b610e4381610e28565b82525050565b6000602082019050610e5e6000830184610e3a565b92915050565b7f4e487b7100000000000000000000000000000000000000000000000000000000600052602160045260246000fd5b60028110610ea457610ea3610e64565b5b50565b6000819050610eb582610e93565b919050565b6000610ec582610ea7565b9050919050565b610ed581610eba565b82525050565b6000602082019050610ef06000830184610ecc565b92915050565b600080fd5b600067ffffffffffffffff821115610f1657610f15610bc1565b5b610f1f82610bb0565b9050602081019050919050565b82818337600083830152505050565b6000610f4e610f4984610efb565b610c21565b905082815260208101848484011115610f6a57610f69610ef6565b5b610f75848285610f2c565b509392505050565b600082601f830112610f9257610f91610bab565b5b8135610fa2848260208601610f3b565b91505092915050565b600060208284031215610fc157610fc0610b75565b5b600082013567ffffffffffffffff811115610fdf57610fde610b7a565b5b610feb84828501610f7d565b91505092915050565b60008115159050919050565b61100981610ff4565b82525050565b600081519050919050565b600082825260208201905092915050565b60005b8381101561104957808201518184015260208101905061102e565b60008484015250505050565b60006110608261100f565b61106a818561101a565b935061107a81856020860161102b565b61108381610bb0565b840191505092915050565b60006040820190506110a36000830185611000565b81810360208301526110b58184611055565b90509392505050565b6000602082840312156110d4576110d3610b75565b5b60006110e284828501610b96565b91505092915050565b60006040820190506111006000830185610e3a565b61110d6020830184610e3a565b9392505050565b60006060820190506111296000830186610b41565b6111366020830185610b41565b6111436040830184610b41565b949350505050565b6000819050919050565b61115e8161114b565b82525050565b600067ffffffffffffffff82169050919050565b61118181611164565b82525050565b600061ffff82169050919050565b61119e81611187565b82525050565b600063ffffffff82169050919050565b6111bd816111a4565b82525050565b600060a0820190506111d86000830188611155565b6111e56020830187611178565b6111f26040830186611195565b6111ff60608301856111b4565b61120c60808301846111b4565b9695505050505050565b60008151905061122581610b7f565b92915050565b60006020828403121561124157611240610b75565b5b600061124f84828501611216565b91505092915050565b7f4e487b7100000000000000000000000000000000000000000000000000000000600052601160045260246000fd5b600061129282610b37565b915061129d83610b37565b92508282039050818111156112b5576112b4611258565b5b92915050565b7f4e487b7100000000000000000000000000000000000000000000000000000000600052603260045260246000fd5b7f4e487b7100000000000000000000000000000000000000000000000000000000600052601260045260246000fd5b600061132482610b37565b915061132f83610b37565b92508261133f5761133e6112ea565b5b828206905092915050565b600081905092915050565b50565b600061136560008361134a565b915061137082611355565b600082019050919050565b600061138682611358565b915081905091905056fea264697066735822122088c8cee3d2a2d70816a839a26fbeb00110f7baecc4f925d1cafbd7e1cbf8211664736f6c63430008110033",
  "linkReferences": {},
  "deployedLinkReferences": {}
}